:100000000C942A000C946B0B0C949E0B0C94D10B4B
:100010000C9447000C9452100C9498110C944700C7
:100020000C9447000C9447000C94EA0F0C94B70F03
:100030000C9447000C9479130C94AC130C94DF13BC
:100040000C9447000C9447000C9447000C94470014
:100050000C94470011241FBECFE5D8E0DEBFCDBF12
:1000600010E0A8E6B0E001C01D92A039B107E1F7A9
:1000700010E0A0E6B0E0E4EFFFE302C005900D92CF
:10008000A836B107D9F70E9412140C94F81F0C94EB
:100090000000EF92FF920F931F937B018C0120E0F1
:1000A00030E040E05FE40E94F50388238CF0C80153
:1000B000B70120E030E040E05FE40E94C1010E940F
:1000C00055049B01AC01205030404040504806C0D0
:1000D000C801B7010E9455049B01AC01B901CA01D6
:1000E0001F910F91FF90EF900895A0E0B0E0EBE733
:1000F000F0E00C94C11FDC012B01FA019C919230BD
:1001000008F439C1EB018881823008F433C194309E
:1001100069F4843009F02FC111969C91119789815F
:10012000981709F428C1A0E6B0E025C1843009F48D
:1001300021C18230A9F4923009F01DC19A01AD01AC
:1001400088E0EA010990AE01E90109929E0181501F
:10015000C1F7E201898111969C918923818308C1AD
:10016000923009F407C112962D903C901397EB0141
:100170008A819B811496AD90BD90CD90DC901797AD
:10018000EC80FD800E811F819101281B390BB90184
:1001900037FF04C066277727621B730B6032710537
:1001A0000CF061C0121613066CF537014801062EDB
:1001B00004C096948794779467940A94D2F721E0C8
:1001C00030E040E050E004C0220F331F441F551FB1
:1001D0006A95D2F721503040404050402E213F21B7
:1001E00040235123211531054105510521F021E01E
:1001F00030E040E050E079018A01E628F72808293C
:1002000019293CC0232BD1F1260E371E350146019A
:10021000062E04C096948794779467940A94D2F734
:1002200021E030E040E050E004C0220F331F441FC3
:10023000551F6A95D2F721503040404050402A2146
:100240003B214C215D21211531054105510521F04E
:1002500021E030E040E050E059016A01A628B728CB
:10026000C828D9280BC0821593052CF01C01AA249C
:10027000BB24650103C0EE24FF24870111969C91E5
:10028000D20111968C91981709F445C0992339F041
:10029000A80197012A193B094C095D0906C0A6016E
:1002A00095012E193F09400B510B57FD08C01182D3
:1002B0003382228224833583468357831DC081E0A5
:1002C00081833382228288279927DC01821B930B4A
:1002D000A40BB50B84839583A683B7830DC0220F2F
:1002E000331F441F551F24833583468357838281E0
:1002F000938101979383828324813581468157813D
:10030000DA01C9010197A109B1098F5F9F4FAF4F72
:10031000BF4328F30BC0918333822282EA0CFB1C7B
:100320000C1D1D1DE482F5820683178383E0808304
:10033000248135814681578157FF1AC0C901AA27F8
:1003400097FDA095BA2F81709070A070B0705695EF
:10035000479537952795822B932BA42BB52B848318
:100360009583A683B7838281938101969383828349
:10037000DF0101C0D201CD01CDB7DEB7E2E10C94BF
:10038000DD1FA0E2B0E0E7ECF1E00C94CD1F698343
:100390007A838B839C832D833E834F835887E9E048
:1003A000EE2EF12CEC0EFD1ECE010196B7010E943F
:1003B0007E058E010F5E1F4FCE010596B8010E948B
:1003C0007E058A8991E089278A8BC701B801AE0131
:1003D000475E5F4F0E9475000E94A904A096E6E068
:1003E0000C94E91FA0E2B0E0E8EFF1E00C94CD1F1F
:1003F00069837A838B839C832D833E834F835887C5
:10040000F9E0EF2EF12CEC0EFD1ECE010196B701A6
:100410000E947E058E010F5E1F4FCE010596B8012A
:100420000E947E05C701B801AE01475E5F4F0E9482
:1004300075000E94A904A096E6E00C94E91FA0E2D2
:10044000B0E0E5E2F2E00C94C11F69837A838B830C
:100450009C832D833E834F835887CE010196BE0136
:10046000675F7F4F0E947E05CE010596BE016F5EDD
:100470007F4F0E947E059985923088F0898982306D
:10048000C8F0943019F4823051F404C0843029F457
:10049000923081F480E690E0C6C0923049F420E0CA
:1004A0009A858A89981321E02A87CE010996BBC0D4
:1004B000823049F420E09A858A89981321E02A8BBA
:1004C000CE014196B0C02D843E844F8458886D88FB
:1004D0007E888F88988CEE24FF248701AA24BB2471
:1004E000650140E050E060E070E0E0E0F0E0C10174
:1004F00081709070892BE9F0E60CF71C081D191D1E
:100500009A01AB012A0D3B1D4C1D5D1D80E090E062
:10051000A0E0B0E0E614F7040805190520F481E036
:1005200090E0A0E0B0E0BA01A901480F591F6A1F8E
:100530007B1FAA0CBB1CCC1CDD1C97FE08C081E0F5
:1005400090E0A0E0B0E0A82AB92ACA2ADB2A3196B6
:10055000E032F10549F0660C771C881C991C569412
:10056000479437942794C3CFFA85EA892B893C892D
:100570008B859C85280F391F2E5F3F4F17C0CA01FE
:1005800081709070892B61F016950795F794E79428
:1005900080E090E0A0E0B0E8E82AF92A0A2B1B2BC3
:1005A00076956795579547952F5F3F4F77FDE7CF36
:1005B0000CC0440F551F661F771F17FD4160EE0CDE
:1005C000FF1C001F111F21503040403090E05907A0
:1005D00090E0690790E4790760F32B8F3C8FDB0193
:1005E000CA018F779070A070B07080349105A1051A
:1005F000B10561F447FD0AC0E114F10401051105DC
:1006000029F0405C5F4F6F4F7F4F40781A8EFE1786
:1006100011F081E08A8F4D8F5E8F6F8F78A383E01A
:10062000898FCE0149960E94A904A096E2E10C941C
:10063000DD1FA8E1B0E0EFE1F3E00C94C91F69838E
:100640007A838B839C832D833E834F835887B9E0C5
:10065000EB2EF12CEC0EFD1ECE010196B7010E948F
:100660007E058E010F5E1F4FCE010596B8010E94D8
:100670007E052985223008F47EC03989323010F495
:10068000B8017CC08A859A8989278A87243011F02D
:10069000223031F4231709F06EC060E670E06EC0BE
:1006A000343039F41D861E861F86188A1C861B86E8
:1006B00004C0323021F484E08987B7015FC02B8504
:1006C0003C858B899C89281B390B3C872B87ED84C3
:1006D000FE840F851889AD88BE88CF88D88CEA142F
:1006E000FB040C051D0540F4EE0CFF1C001F111F40
:1006F000215030403C872B8720E030E040E050E044
:1007000080E090E0A0E0B0E460E070E0EA14FB0478
:100710000C051D0540F0282B392B4A2B5B2BEA18C2
:10072000FB080C091D09B695A79597958795EE0CC2
:10073000FF1C001F111F6F5F7F4F6F31710531F775
:10074000DA01C9018F779070A070B0708034910584
:10075000A105B10561F427FD0AC0E114F10401050A
:10076000110529F0205C3F4F4F4F5F4F20782D87B8
:100770003E874F87588BBE01675F7F4FCB010E943A
:10078000A9046896EAE00C94E51FA8E1B0E0EBEC60
:10079000F3E00C94CD1F69837A838B839C832D8334
:1007A0003E834F83588789E0E82EF12CEC0EFD1E26
:1007B000CE010196B7010E947E058E010F5E1F4F8C
:1007C000CE010596B8010E947E058985823040F0F1
:1007D0008989823028F0C701B8010E94F60501C05E
:1007E0008FEF6896E6E00C94E91FA8E1B0E0EBEF2C
:1007F000F3E00C94CD1F69837A838B839C832D83D4
:100800003E834F83588789E0E82EF12CEC0EFD1EC5
:10081000CE010196B7010E947E058E010F5E1F4F2B
:10082000CE010596B8010E947E058985823040F090
:100830008989823028F0C701B8010E94F60501C0FD
:100840008FEF6896E6E00C94E91FA8E1B0E0EBE2D8
:10085000F4E00C94CD1F69837A838B839C832D8372
:100860003E834F83588789E0E82EF12CEC0EFD1E65
:10087000CE010196B7010E947E058E010F5E1F4FCB
:10088000CE010596B8010E947E058985823040F030
:100890008989823028F0C701B8010E94F60501C09D
:1008A00081E06896E6E00C94E91FACE0B0E0EBE58F
:1008B000F4E00C94D11F69837A838B839C83CE01EF
:1008C0000196BE016B5F7F4F0E947E058D81823055
:1008D00061F1823050F1843021F48E81882351F10E
:1008E0002EC02F81388537FD20C06E812F31310514
:1008F0001CF06623F9F023C08EE190E0821B930B7D
:1009000029853A854B855C8504C056954795379572
:1009100027958A95D2F76623B1F05095409530958A
:1009200021953F4F4F4F5F4F0EC020E030E040E039
:1009300050E009C02FEF3FEF4FEF5FE704C020E02A
:1009400030E040E050E8B901CA012C96E2E00C9496
:10095000ED1FDF92EF92FF920F931F93FC01E48053
:10096000F58006811781D1808081823048F480E053
:1009700090E0A0E1B0E0E82AF92A0A2B1B2BA5C0E1
:10098000843009F49FC0823021F4EE24FF248701D3
:1009900005C0E114F1040105110519F4E0E0F0E0EF
:1009A00096C0628173819FEF623879070CF05BC05B
:1009B00022E83FEF261B370B2A3131052CF020E0CF
:1009C00030E040E050E02AC0B801A701022E04C088
:1009D00076956795579547950A94D2F781E090E010
:1009E000A0E0B0E004C0880F991FAA1FBB1F2A9582
:1009F000D2F70197A109B1098E219F21A023B1232C
:100A00000097A105B10521F081E090E0A0E0B0E001
:100A10009A01AB01282B392B4A2B5B2BDA01C90138
:100A20008F779070A070B07080349105A105B105EA
:100A300039F427FF09C0205C3F4F4F4F5F4F04C080
:100A4000215C3F4F4F4F5F4FE0E0F0E02030A0E0EF
:100A50003A07A0E04A07A0E45A0710F0E1E0F0E00E
:100A600079018A0127C06038710564F5FB01E158FE
:100A7000FF4FD801C7018F779070A070B07080349D
:100A80009105A105B10539F4E7FE0DC080E490E0C1
:100A9000A0E0B0E004C08FE390E0A0E0B0E0E80E9A
:100AA000F91E0A1F1B1F17FF05C016950795F7941F
:100AB000E794319687E016950795F794E7948A9521
:100AC000D1F705C0EE24FF248701EFEFF0E06E2F91
:100AD000679566276795902F9F77D794DD24D794E5
:100AE0008E2F8695492F462B582F5D29B701CA01B5
:100AF0001F910F91FF90EF90DF900895FC01DB01B3
:100B0000408151812281622F6F7770E0221F22275E
:100B1000221F9381892F880F822B282F30E0991F65
:100B20009927991F11969C93119721153105A9F5C5
:100B3000411551056105710511F482E037C082E865
:100B40009FEF13969C938E9312979A01AB0167E0E7
:100B5000220F331F441F551F6A95D1F783E08C93F2
:100B60000DC0220F331F441F551F12968D919C916B
:100B70001397019713969C938E931297203080E0E1
:100B8000380780E0480780E4580758F314962D93FF
:100B90003D934D935C93179708952F3F310579F45A
:100BA000411551056105710519F484E08C93089590
:100BB00064FF03C081E08C9312C01C9210C02F57B9
:100BC000304013963C932E93129783E08C9387E0EA
:100BD000440F551F661F771F8A95D1F770641496CE
:100BE0004D935D936D937C93179708951F93DC014C
:100BF000FB019C91923008F447C08081823008F458
:100C000043C0943051F411961C91843099F5818140
:100C1000682F70E0611B71093FC0843021F0923071
:100C200031F48230B9F18181882389F12DC0119688
:100C30001C9111978230F1F081811817D9F4129626
:100C40002D913C911397828193818217930794F0A1
:100C500028173907BCF014968D919D910D90BC9189
:100C6000A02D2481358146815781281739074A07ED
:100C70005B0718F4112341F00AC082179307A407F9
:100C8000B50740F4112319F061E070E005C06FEF83
:100C90007FEF02C060E070E0CB011F910895DF9309
:100CA000CF93CDB7DEB7EAE3F0E08FEF8083E7E3E1
:100CB000F0E08FE28083E4E3F0E08FEF8083E1E314
:100CC000F0E082EE8083EBE3F0E01082E8E3F0E016
:100CD0001082E5E3F0E01082E2E3F0E01082CF91D1
:100CE000DF910895DF93CF93CDB7DEB72D970FB681
:100CF000F894DEBF0FBECDBF89836A834B838981A1
:100D0000282F30E03D872C878C859D85813091058B
:100D100009F44FC02C853D85223031052CF48C859B
:100D20009D85009771F0ECC02C853D852230310502
:100D300009F477C08C859D858330910509F4A9C09D
:100D4000DFC08B81282F30E03B872A878A859B85EF
:100D5000009731F02A853B8521303105B1F0D0C0B4
:100D6000AAE3B0E0EAE3F0E08081482F8A81282FEF
:100D700030E081E090E0022E02C0880F991F0A94B3
:100D8000E2F7809584238C93BBC0AAE3B0E0EAE34A
:100D9000F0E08081482F8A81282F30E081E090E0C8
:100DA000022E02C0880F991F0A94E2F7842B8C93BD
:100DB000A7C08B81282F30E03987288788859985BF
:100DC000009731F02885398521303105B1F098C080
:100DD000A7E3B0E0E7E3F0E08081482F8A81282F85
:100DE00030E081E090E0022E02C0880F991F0A9443
:100DF000E2F7809584238C9383C0A7E3B0E0E7E318
:100E0000F0E08081482F8A81282F30E081E090E057
:100E1000022E02C0880F991F0A94E2F7842B8C934C
:100E20006FC08B81282F30E03F832E838E819F817E
:100E3000009731F02E813F8121303105B1F060C043
:100E4000A4E3B0E0E4E3F0E08081482F8A81282F1A
:100E500030E081E090E0022E02C0880F991F0A94D2
:100E6000E2F7809584238C934BC0A4E3B0E0E4E3E5
:100E7000F0E08081482F8A81282F30E081E090E0E7
:100E8000022E02C0880F991F0A94E2F7842B8C93DC
:100E900037C08B81282F30E03D832C838C819D814E
:100EA000009731F02C813D8121303105B1F028C00F
:100EB000A1E3B0E0E1E3F0E08081482F8A81282FB0
:100EC00030E081E090E0022E02C0880F991F0A9462
:100ED000E2F7809584238C9313C0A1E3B0E0E1E3B3
:100EE000F0E08081482F8A81282F30E081E090E077
:100EF000022E02C0880F991F0A94E2F7842B8C936C
:100F00002D960FB6F894DEBF0FBECDBFCF91DF9107
:100F10000895DF93CF93CDB7DEB72D970FB6F89432
:100F2000DEBF0FBECDBF89836A834B838981282FA3
:100F300030E03D872C878C859D858130910509F4B3
:100F40004FC02C853D85223031052CF48C859D8544
:100F5000009771F0EBC02C853D852230310509F4F6
:100F600077C08C859D858330910509F4A9C0DEC0CA
:100F70008B81282F30E03B872A878A859B850097C5
:100F8000D1F02A853B852130310509F0CFC0ABE394
:100F9000B0E0EBE3F0E08081482F8A81282F30E039
:100FA00081E090E0022E02C0880F991F0A94E2F7B8
:100FB000842B8C93BBC0ABE3B0E0EBE3F0E080812B
:100FC000482F8A81282F30E081E090E0022E02C075
:100FD000880F991F0A94E2F7809584238C93A6C00A
:100FE0008B81282F30E0398728878885998500975D
:100FF000D1F0288539852130310509F097C0A8E363
:10100000B0E0E8E3F0E08081482F8A81282F30E0CB
:1010100081E090E0022E02C0880F991F0A94E2F747
:10102000842B8C9383C0A8E3B0E0E8E3F0E08081F8
:10103000482F8A81282F30E081E090E0022E02C004
:10104000880F991F0A94E2F7809584238C936EC0D1
:101050008B81282F30E03F832E838E819F810097E4
:10106000D1F02E813F812130310509F05FC0A5E329
:10107000B0E0E5E3F0E08081482F8A81282F30E05E
:1010800081E090E0022E02C0880F991F0A94E2F7D7
:10109000842B8C934BC0A5E3B0E0E5E3F0E08081C6
:1010A000482F8A81282F30E081E090E0022E02C094
:1010B000880F991F0A94E2F7809584238C9336C099
:1010C0008B81282F30E03D832C838C819D8100977C
:1010D000C9F02C813D812130310541F5A2E3B0E01A
:1010E000E2E3F0E08081482F8A81282F30E081E020
:1010F00090E0022E02C0880F991F0A94E2F7842B19
:101100008C9314C0A2E3B0E0E2E3F0E08081482FCA
:101110008A81282F30E081E090E0022E02C0880F03
:10112000991F0A94E2F7809584238C932D960FB62D
:10113000F894DEBF0FBECDBFCF91DF910895DF934E
:10114000CF9300D000D0CDB7DEB789836A83898181
:10115000282F30E03C832B838B819C81813091054B
:10116000D1F02B813C81223031052CF48B819C8184
:10117000009761F01EC02B813C812230310581F047
:101180008B819C818330910581F013C0EAE3F0E00C
:101190008A8180830EC0E7E3F0E08A81808309C002
:1011A000E4E3F0E08A81808304C0E1E3F0E08A8137
:1011B00080830F900F900F900F90CF91DF91089543
:1011C000DF93CF9300D000D0CDB7DEB789836A8399
:1011D0008981282F30E03C832B838B819C81813057
:1011E0009105D1F02B813C81223031052CF48B818B
:1011F0009C81009761F01EC02B813C81223031051B
:1012000081F08B819C818330910581F013C0EBE3E9
:10121000F0E08A8180830EC0E8E3F0E08A81808379
:1012200009C0E5E3F0E08A81808304C0E2E3F0E0F6
:101230008A8180830F900F900F900F90CF91DF9154
:101240000895DF93CF9300D000D00F92CDB7DEB7D3
:101250008A836B838FEF89838A81282F30E03D83D7
:101260002C834C815D814130510541F18C819D8100
:101270008230910534F42C813D812115310561F0D6
:1012800052C04C815D814230510551F18C819D816C
:1012900083309105B9F147C0E9E3F0E08081282F60
:1012A00030E08B81882F90E0A90102C055954795C9
:1012B0008A95E2F7CA018170898335C0E6E3F0E0E0
:1012C0008081282F30E08B81882F90E0A90102C017
:1012D000559547958A95E2F7CA018170898323C0A5
:1012E000E3E3F0E08081282F30E08B81882F90E0CD
:1012F000A90102C0559547958A95E2F7CA01817008
:10130000898311C0E0E3F0E08081282F30E08B81F9
:10131000882F90E0A90102C0559547958A95E2F77C
:10132000CA018170898389810F900F900F900F906F
:101330000F90CF91DF910895DF93CF9300D000D02D
:10134000CDB7DEB789836A838981282F30E03C835B
:101350002B838B819C818130910549F12B813C81CC
:10136000223031052CF48B819C81009761F05AC0AA
:101370002B813C812230310571F18B819C8183303E
:101380009105E9F14FC0ABE3B0E0EBE3F0E0808121
:10139000482F8A81282F30E081E090E0022E02C0A1
:1013A000880F991F0A94E2F784278C933BC0A8E327
:1013B000B0E0E8E3F0E08081482F8A81282F30E018
:1013C00081E090E0022E02C0880F991F0A94E2F794
:1013D00084278C9327C0A5E3B0E0E5E3F0E08081AB
:1013E000482F8A81282F30E081E090E0022E02C051
:1013F000880F991F0A94E2F784278C9313C0A2E305
:10140000B0E0E2E3F0E08081482F8A81282F30E0CD
:1014100081E090E0022E02C0880F991F0A94E2F743
:1014200084278C930F900F900F900F90CF91DF91A6
:101430000895DF93CF9300D000D000D0CDB7DEB7B2
:1014400089836A838A81843008F05AC08981282F71
:1014500030E03E832D838D819E8181309105D1F0D6
:101460002D813E812230310561F18D819E81009771
:1014700009F046C0A5E5B0E0E5E5F0E080818C7FAD
:101480008C93A5E5B0E0E5E5F0E090818A81892BB9
:101490008C9336C0A5E5B0E0E5E5F0E08081837F80
:1014A0008C93A5E5B0E0E5E5F0E08081282F8A8106
:1014B000882F90E0880F991F880F991F822B8C939B
:1014C0001FC08A81282F30E03C832B838B819C8135
:1014D0008230910531F02B813C812330310549F078
:1014E0000FC0A4E5B0E0E4E5F0E080818F7B8C9351
:1014F00007C0A4E5B0E0E4E5F0E0808180648C936F
:1015000026960FB6F894DEBF0FBECDBFCF91DF9108
:101510000895DF93CF9300D00F92CDB7DEB78983C4
:101520008981282F30E03B832A838A819B81813007
:10153000910589F02A813B8122303105A1F08A8111
:101540009B810097B9F4ABE5B0E0EBE5F0E080817A
:1015500080648C930FC0ABE5B0E0EBE5F0E08081F8
:1015600080688C9307C0ABE5B0E0EBE5F0E08081EC
:1015700080628C930F900F900F90CF91DF91089520
:10158000DF93CF9300D00F92CDB7DEB789838981E7
:10159000282F30E03B832A838A819B81813091050B
:1015A00089F02A813B8122303105A1F08A819B811B
:1015B0000097B9F4ABE5B0E0EBE5F0E080818F7B1C
:1015C0008C930FC0ABE5B0E0EBE5F0E080818F7766
:1015D0008C9307C0ABE5B0E0EBE5F0E080818F7D58
:1015E0008C930F900F900F90CF91DF910895DF9320
:1015F000CF9300D00F92CDB7DEB789838981282F92
:1016000030E03B832A838A819B818130910589F078
:101610002A813B8122303105A1F08A819B8100978C
:10162000B9F4AAE5B0E0EAE5F0E0808180648C934B
:101630000FC0AAE5B0E0EAE5F0E0808180688C9315
:1016400007C0AAE5B0E0EAE5F0E0808180628C9313
:101650000F900F900F90CF91DF910895DF93CF936C
:1016600000D000D00F92CDB7DEB789837B836A8329
:101670008A819B81009739F18981282F30E03D8351
:101680002C838C819D818130910581F02C813D815D
:101690002230310591F08C819D810097A1F48A81DF
:1016A0009B8190936900809368000DC08A819B8123
:1016B00090936B0080936A0006C08A819B8190930F
:1016C0006D0080936C000F900F900F900F900F9013
:1016D000CF91DF9108951F920F920FB60F921124B0
:1016E0002F933F934F935F936F937F938F939F932A
:1016F000AF93BF93EF93FF93DF93CF93CDB7DEB755
:101700008091680090916900009729F0E09168004D
:10171000F09169000995CF91DF91FF91EF91BF9111
:10172000AF919F918F917F916F915F914F913F9179
:101730002F910F900FBE0F901F9018951F920F9230
:101740000FB60F9211242F933F934F935F936F9394
:101750007F938F939F93AF93BF93EF93FF93DF9309
:10176000CF93CDB7DEB780916A0090916B00009760
:1017700029F0E0916A00F0916B000995CF91DF911B
:10178000FF91EF91BF91AF919F918F917F916F9159
:101790005F914F913F912F910F900FBE0F901F902F
:1017A00018951F920F920FB60F9211242F933F930B
:1017B0004F935F936F937F938F939F93AF93BF9359
:1017C000EF93FF93DF93CF93CDB7DEB780916C009B
:1017D00090916D00009729F0E0916C00F0916D0000
:1017E0000995CF91DF91FF91EF91BF91AF919F91BB
:1017F0008F917F916F915F914F913F912F910F90BA
:101800000FBE0F901F901895DF93CF93CDB7DEB723
:10181000AFE5B0E0EFE5F0E0808180688C93CF9198
:10182000DF910895DF93CF93CDB7DEB7AFE5B0E09A
:10183000EFE5F0E080818F778C93CF91DF91089571
:10184000DF93CF9300D0CDB7DEB789836A838981D8
:101850006A8141E00E9489070F900F90CF91DF913C
:101860000895DF93CF9300D0CDB7DEB789836A8325
:1018700089816A8140E00E9489070F900F90CF9183
:10188000DF910895DF93CF9300D00F92CDB7DEB7ED
:1018900089836A834B8389816A814B810E9489078E
:1018A0000F900F900F90CF91DF910895DF93CF931A
:1018B00000D0CDB7DEB789836A8389816A810E94AF
:1018C0009C090F900F90CF91DF910895DF93CF93F4
:1018D0000F92CDB7DEB7898389810E94A90F0F903F
:1018E000CF91DF910895DF93CF9300D00F92CDB7C2
:1018F000DEB789838981282F30E03B832A838A8160
:101900009B818230910509F441C02A813B812330BB
:10191000310534F48A819B818130910571F0B0C02A
:101920002A813B812330310509F459C08A819B818A
:101930008430910509F47CC0A3C080E060E041E000
:101940000E94890780E061E040E00E94890780E012
:1019500062E041E00E94890780E063E040E00E948D
:10196000890780E064E040E00E94890780E065E04C
:1019700041E00E94890780E066E041E00E9489071B
:1019800080E067E040E00E9489077AC080E060E084
:1019900040E00E94890780E061E041E00E94890701
:1019A00080E062E040E00E94890780E063E041E07F
:1019B0000E94890780E064E041E00E94890780E09E
:1019C00065E040E00E94890780E066E040E00E9418
:1019D000890780E067E041E00E94890751C080E00C
:1019E00060E041E00E94890780E061E040E00E9401
:1019F000890780E062E040E00E94890780E063E0C0
:101A000041E00E94890780E064E041E00E9489078C
:101A100080E065E040E00E94890780E066E041E008
:101A20000E94890780E067E040E00E94890728C0A3
:101A300080E060E040E00E94890780E061E041E0F2
:101A40000E94890780E062E041E00E94890780E00F
:101A500063E040E00E94890780E064E040E00E948B
:101A6000890780E065E041E00E94890780E066E048
:101A700040E00E94890780E067E041E00E9489071A
:101A80000F900F900F90CF91DF910895DF93CF9338
:101A9000CDB7DEB780E060E00E94E008CF91DF9133
:101AA0000895DF93CF93CDB7DEB7E8970FB6F894DC
:101AB000DEBF0FBECDBF82E00E94730C80E090E8D5
:101AC000ABE3B5E48DAB9EABAFABB8AF6DA97EA970
:101AD0008FA998AD20E030E04AEF54E40E941F0245
:101AE000DC01CB0189AB9AABABABBCAB69A97AA9E2
:101AF0008BA99CA920E030E040E85FE30E94250428
:101B000088232CF481E090E098AB8FA73FC069A9AF
:101B10007AA98BA99CA920E03FEF4FE757E40E94E8
:101B2000C50318164CF56DA97EA98FA998AD20E0C4
:101B300030E040E251E40E941F02DC01CB01BC0115
:101B4000CD010E944900DC01CB0198AB8FA70FC0EB
:101B500088EC90E09EA78DA78DA59EA50197F1F733
:101B60009EA78DA78FA598A9019798AB8FA78FA542
:101B700098A9009769F714C069A97AA98BA99CA9AB
:101B80000E944900DC01CB0198AB8FA78FA598A9D3
:101B90009CA78BA78BA59CA50197F1F79CA78BA76A
:101BA00083E00E94730C80E090E0A8ECB3E48FA384
:101BB00098A7A9A7BAA76FA178A589A59AA520E09B
:101BC00030E04AEF54E40E941F02DC01CB018BA3FA
:101BD0009CA3ADA3BEA36BA17CA18DA19EA120E07F
:101BE00030E040E85FE30E94250488232CF481E084
:101BF00090E09AA389A33FC06BA17CA18DA19EA177
:101C000020E03FEF4FE757E40E94C50318164CF55C
:101C10006FA178A589A59AA520E030E040E251E4C3
:101C20000E941F02DC01CB01BC01CD010E944900D2
:101C3000DC01CB019AA389A30FC088EC90E098A3A4
:101C40008F8F8F8D98A10197F1F798A38F8F89A11E
:101C50009AA101979AA389A389A19AA1009769F7EC
:101C600014C06BA17CA18DA19EA10E944900DC0142
:101C7000CB019AA389A389A19AA19E8F8D8F8D8D67
:101C80009E8D0197F1F79E8F8D8F81E00E94730CDE
:101C900080E090E0AAE7B4E4898F9A8FAB8FBC8F85
:101CA000698D7A8D8B8D9C8D20E030E04AEF54E475
:101CB0000E941F02DC01CB018D8B9E8BAF8BB88FF6
:101CC0006D897E898F89988D20E030E040E85FE360
:101CD0000E94250488232CF481E090E09C8B8B8B60
:101CE0003FC06D897E898F89988D20E03FEF4FE757
:101CF00057E40E94C50318164CF5698D7A8D8B8DBB
:101D00009C8D20E030E040E251E40E941F02DC01A3
:101D1000CB01BC01CD010E944900DC01CB019C8BB1
:101D20008B8B0FC088EC90E09A8B898B89899A897C
:101D30000197F1F79A8B898B8B899C8901979C8BF2
:101D40008B8B8B899C89009769F714C06D897E897C
:101D50008F89988D0E944900DC01CB019C8B8B8B75
:101D60008B899C89988B8F878F8598890197F1F74C
:101D7000988B8F8784E00E94730C80E090E0A8EC41
:101D8000B3E48B879C87AD87BE876B857C858D850B
:101D90009E8520E030E04AEF54E40E941F02DC01FF
:101DA000CB018F839887A987BA876F8178858985CA
:101DB0009A8520E030E040E85FE30E942504882314
:101DC0002CF481E090E09E838D833FC06F81788505
:101DD00089859A8520E03FEF4FE757E40E94C503CD
:101DE00018164CF56B857C858D859E8520E030E04E
:101DF00040E251E40E941F02DC01CB01BC01CD0195
:101E00000E944900DC01CB019E838D830FC088ECCA
:101E100090E09C838B838B819C810197F1F79C835D
:101E20008B838D819E8101979E838D838D819E8181
:101E3000009769F714C06F81788589859A850E941B
:101E40004900DC01CB019E838D838D819E819A8325
:101E5000898389819A810197F1F79A8389830E9406
:101E6000460DE8960FB6F894DEBF0FBECDBFCF91FA
:101E7000DF910895DF93CF93CDB7DEB7A3E5B0E050
:101E8000E3E5F0E0808188608C93A3E5B0E0E3E5D2
:101E9000F0E0808180648C93ECE5F0E083E6808361
:101EA000A3E5B0E0E3E5F0E08081887C8C93A3E5D6
:101EB000B0E0E3E5F0E0808182638C93CF91DF9125
:101EC0000895DF93CF93CDB7DEB7A3E5B0E0E3E5A8
:101ED000F0E08081887F8C93CF91DF910895DF932C
:101EE000CF930F92CDB7DEB78983E2E5F0E0898129
:101EF00080830F90CF91DF910895DF93CF9300D02F
:101F0000CDB7DEB79A83898389819A81009731F0B2
:101F100089819A8190936F0080936E000F900F904B
:101F2000CF91DF910895DF93CF9300D0CDB7DEB787
:101F30009A83898389819A81009731F089819A8176
:101F400090937100809370000F900F90CF91DF916C
:101F50000895DF93CF930F92CDB7DEB78983ECE579
:101F6000F0E0898180830F90CF91DF9108951F92D7
:101F70000F920FB60F9211242F933F934F935F93BD
:101F80006F937F938F939F93AF93BF93EF93FF9341
:101F9000DF93CF93CDB7DEB780916E0090916F0045
:101FA000009729F0E0916E00F0916F000995CF91B4
:101FB000DF91FF91EF91BF91AF919F918F917F91B1
:101FC0006F915F914F913F912F910F900FBE0F90A6
:101FD0001F9018951F920F920FB60F9211242F93F6
:101FE0003F934F935F936F937F938F939F93AF93A1
:101FF000BF93EF93FF93DF93CF93CDB7DEB780917D
:10200000700090917100009729F0E0917000F091BC
:1020100071000995CF91DF91FF91EF91BF91AF9141
:102020009F918F917F916F915F914F913F912F91F0
:102030000F900FBE0F901F901895DF93CF93CDB7E1
:10204000DEB7E5E4F0E01082E5E4F0E081E08083D3
:10205000E4E4F0E01082A9E5B0E0E9E5F0E0808199
:1020600080648C93A9E5B0E0E9E5F0E080818F77AA
:102070008C93CF91DF910895DF93CF9300D0CDB7AC
:10208000DEB79A83898389819A81009731F08981AB
:102090009A8190937300809372000F900F90CF916C
:1020A000DF9108951F920F920FB60F9211242F9374
:1020B0003F934F935F936F937F938F939F93AF93D0
:1020C000BF93EF93FF93DF93CF93CDB7DEB78091AC
:1020D000720090917300009729F0E0917200F091E6
:1020E00073000995CF91DF91FF91EF91BF91AF916F
:1020F0009F918F917F916F915F914F913F912F9120
:102100000F900FBE0F901F901895DF93CF93CDB710
:10211000DEB7AEE4B0E0EEE4F0E080818B7F8C933C
:10212000AEE4B0E0EEE4F0E080818D7F8C93AEE42D
:10213000B0E0EEE4F0E0808181608C93CF91DF919C
:102140000895DF93CF930F92CDB7DEB78983EAE48A
:10215000F0E08981882F90E0918380830F90CF9168
:10216000DF910895DF93CF9300D0CDB7DEB79A8388
:102170008983ECE4F0E089819A81918380830F90D8
:102180000F90CF91DF910895DF93CF93CDB7DEB756
:10219000ECE4F0E080819181CF91DF910895DF93AD
:1021A000CF93CDB7DEB7AEE4B0E0EEE4F0E08081EF
:1021B00080648C93A9E5B0E0E9E5F0E0808180627D
:1021C0008C93CF91DF910895DF93CF93CDB7DEB796
:1021D000A9E5B0E0E9E5F0E080818F7D8C93CF91B7
:1021E000DF910895DF93CF930F92CDB7DEB7898348
:1021F000EFE4F0E0898180830F90CF91DF91089523
:10220000DF93CF930F92CDB7DEB78983EEE4F0E092
:10221000898180830F90CF91DF910895DF93CF93D1
:10222000CDB7DEB7A8E5B0E0E8E5F0E080818062F8
:102230008C93CF91DF910895DF93CF93CDB7DEB725
:10224000AEE4B0E0EEE4F0E0808180648C93CF9166
:10225000DF910895DF93CF93CDB7DEB7AEE4B0E062
:10226000EEE4F0E080818F7B8C93CF91DF91089535
:10227000DF93CF930F92CDB7DEB78FEF8983E8E579
:10228000F0E080818295869587708170898389814D
:102290000F90CF91DF910895DF93CF9300D0CDB70A
:1022A000DEB79A83898389819A81009731F0898189
:1022B0009A8190937500809374000F900F90CF9146
:1022C000DF910895DF93CF9300D00F92CDB7DEB7A3
:1022D00089838981282F30E03B832A838A819B81EF
:1022E0008230910569F02A813B812330310579F4F0
:1022F000AEE4B0E0EEE4F0E0808180648C9307C04F
:10230000AEE4B0E0EEE4F0E080818F7B8C930F9040
:102310000F900F90CF91DF910895DF93CF93CDB7BA
:10232000DEB7E6E4F0E080819181CF91DF910895FE
:102330001F920F920FB60F9211242F933F934F933A
:102340005F936F937F938F939F93AF93BF93EF931D
:10235000FF93DF93CF93CDB7DEB780917400909158
:102360007500009729F0E0917400F09175000995CF
:10237000CF91DF91FF91EF91BF91AF919F918F919D
:102380007F916F915F914F913F912F910F900FBE71
:102390000F901F901895DF93CF9300D00F92CDB779
:1023A000DEB78B838B81882F90E0A0E0B0E028EE31
:1023B00033E040E050E0BC01CD010E94801FDC0111
:1023C000CB0124E630E040E050E0BC01CD010E94AA
:1023D0009F1FDA01C90189519C4F9A8389838981A2
:1023E0000E94A1100F900F900F90CF91DF91089550
:1023F000DF93CF9300D0CDB7DEB783E390E09A832D
:102400008983ABE2B0E0EBE2F0E080818D7F8C93DA
:10241000E9E2F0E089818083E0E4F0E089819A815B
:10242000892F99278083EAE2F0E088E18083E0E465
:10243000F0E086E880830F900F90CF91DF910895B0
:10244000DF93CF9300D000D00F92CDB7DEB78D834E
:1024500019821A821B821C8217C089819A81AB81E2
:10246000BC810196A11DB11D89839A83AB83BC8376
:1024700089819A81AB81BC81803221EA920727E071
:10248000A20720E0B20761F0EBE2F0E080818295E4
:1024900086958770882F90E0817090700097E9F2A0
:1024A00089819A81AB81BC81803221EA920727E041
:1024B000A20720E0B20799F119821A821B821C82BE
:1024C000ECE2F0E08D81808317C089819A81AB8135
:1024D000BC810196A11DB11D89839A83AB83BC8306
:1024E00089819A81AB81BC81803221EA920727E001
:1024F000A20720E0B20761F0EBE2F0E08081829574
:1025000086958770882F90E0817090700097E9F22F
:10251000ABE2B0E0EBE2F0E0808180648C930F905E
:102520000F900F900F900F90CF91DF910895DF9350
:10253000CF9300D0CDB7DEB79A8389830BC0E981F2
:10254000FA81208189819A8101969A838983822FD9
:102550000E942012E981FA818081882381F70F90FF
:102560000F90CF91DF910895DF93CF930F92CDB766
:10257000DEB78983EBE2F0E08081829586958770F3
:10258000882F90E0817090700097A1F3ECE2F0E06A
:1025900089818083EBE2F0E0808182958695877067
:1025A000882F90E0817090700097A1F3ABE2B0E0CB
:1025B000EBE2F0E0808180648C930F90CF91DF910B
:1025C0000895DF93CF930F92CDB7DEB78983EBE207
:1025D000F0E08081829586958770882F90E08170E9
:1025E0009070882321F0ECE2F0E0898180830F90E5
:1025F000CF91DF910895DF93CF93CDB7DEB7EBE2B4
:10260000F0E080818823DCF7ECE2F0E08081CF917C
:10261000DF910895DF93CF9300D000D00F92CDB714
:10262000DEB71A821B821C821D828FEF898317C03E
:102630008A819B81AC81BD810196A11DB11D8A83D8
:102640009B83AC83BD838A819B81AC81BD818032B9
:1026500021EA920727E0A20720E0B20729F0EBE287
:10266000F0E08081882324F78A819B81AC81BD8141
:10267000803221EA920727E0A20720E0B20721F08A
:10268000ECE2F0E08081898389810F900F900F90B8
:102690000F900F90CF91DF910895DF93CF93CDB737
:1026A000DEB7ECE2F0E08081CF91DF910895DF9317
:1026B000CF9300D00F92CDB7DEB789837B836A8337
:1026C0008981833080F48A819B81009761F08981C0
:1026D000882F90E0880F991FFC01EA58FF4F8A81EC
:1026E0009B81918380830F900F900F90CF91DF910A
:1026F00008951F920F920FB60F9211242F933F93BC
:102700004F935F936F937F938F939F93AF93BF93F9
:10271000EF93FF93DF93CF93CDB7DEB7809178002F
:1027200090917900009729F0E0917800F09179007C
:102730000995CF91DF91FF91EF91BF91AF919F915B
:102740008F917F916F915F914F913F912F910F905A
:102750000FBE0F901F9018951F920F920FB60F92F9
:1027600011242F933F934F935F936F937F938F9396
:102770009F93AF93BF93EF93FF93DF93CF93CDB727
:10278000DEB780917A0090917B00009729F0E0916C
:102790007A00F0917B000995CF91DF91FF91EF9145
:1027A000BF91AF919F918F917F916F915F914F9169
:1027B0003F912F910F900FBE0F901F9018951F9271
:1027C0000F920FB60F9211242F933F934F935F9365
:1027D0006F937F938F939F93AF93BF93EF93FF93E9
:1027E000DF93CF93CDB7DEB78091760090917700DD
:1027F000009729F0E0917600F09177000995CF914C
:10280000DF91FF91EF91BF91AF919F918F917F9158
:102810006F915F914F913F912F910F900FBE0F904D
:102820001F9018950F931F93DF93CF93CDB7DEB70B
:10283000C55CD0400FB6F894DEBF0FBECDBFFE0121
:10284000EB53FF4F81EE80830E944F060E94F811E8
:102850000E943A0F0E944A1D0E942F1F0E94751F5E
:102860000E94040C0E94721DFE01EF53FF4F80E096
:1028700090E0A0E7B1E480839183A283B3838E01CB
:1028800003541F4FFE01EF53FF4F6081718182811E
:10289000938120E030E04AEF54E40E941F02DC0103
:1028A000CB01F80180839183A283B383FE01E354BB
:1028B000FF4F608171818281938120E030E040E8A8
:1028C0005FE30E942504882344F4FE01E554FF4F92
:1028D00081E090E09183808364C0FE01E354FF4F68
:1028E000608171818281938120E03FEF4FE757E45F
:1028F0000E94C50318160CF043C0FE01EF53FF4FB2
:10290000608171818281938120E030E040E251E476
:102910000E941F02DC01CB018E0105541F4FBC0138
:10292000CD010E944900DC01CB01F8019183808335
:102930001FC0FE01E754FF4F88EC90E09183808335
:10294000FE01E754FF4F808191810197F1F7FE016D
:10295000E754FF4F91838083DE01A554BF4FFE01F2
:10296000E554FF4F80819181019711969C938E933E
:10297000FE01E554FF4F808191810097D1F627C079
:102980008E0105541F4FFE01E354FF4F608171819A
:10299000828193810E944900DC01CB01F80191837F
:1029A0008083DE01A954BF4FFE01E554FF4F8081B3
:1029B00091818D939C93FE01E954FF4F8081918119
:1029C0000197F1F7FE01E954FF4F918380830E9444
:1029D0000A13FE01EB53FF4F8083FE01EB53FF4FC1
:1029E0008081813639F0FE01EB53FF4F80818134C5
:1029F00009F038CF0E94721DFE01ED54FF4F80E0B8
:102A000090E0A0E7B1E480839183A283B3838E0139
:102A100001551F4FFE01ED54FF4F6081718182818E
:102A2000938120E030E04AEF54E40E941F02DC0171
:102A3000CB01F80180839183A283B383FE01E1552A
:102A4000FF4F608171818281938120E030E040E816
:102A50005FE30E942504882344F4FE01E355FF4F01
:102A600081E090E09183808364C0FE01E155FF4FD7
:102A7000608171818281938120E03FEF4FE757E4CD
:102A80000E94C50318160CF043C0FE01ED54FF4F21
:102A9000608171818281938120E030E040E251E4E5
:102AA0000E941F02DC01CB018E0103551F4FBC01A8
:102AB000CD010E944900DC01CB01F80191838083A4
:102AC0001FC0FE01E555FF4F88EC90E091838083A5
:102AD000FE01E555FF4F808191810197F1F7FE01DD
:102AE000E555FF4F91838083DE01A355BF4FFE0163
:102AF000E355FF4F80819181019711969C938E93AE
:102B0000FE01E355FF4F808191810097D1F627C0E8
:102B10008E0103551F4FFE01E155FF4F608171810A
:102B2000828193810E944900DC01CB01F8019183ED
:102B30008083DE01A755BF4FFE01E355FF4F808123
:102B400091818D939C93FE01E755FF4F8081918188
:102B50000197F1F7FE01E755FF4F9183808385E5EB
:102B60000E94660C81E060E00E94560C81E065E006
:102B700041E00E9489078091820090918300A0919A
:102B80008400B091850085319105A105B10508F457
:102B9000EDC28091820090918300A0918400B09159
:102BA000850089329105A105B10508F0DFC281E0F9
:102BB00061E00E94560C83E00E94730CFE01EB550D
:102BC000FF4F80E090E0A6EEB2E480839183A28381
:102BD000B3838E010F551F4FFE01EB55FF4F6081F0
:102BE00071818281938120E030E04AEF54E40E94B9
:102BF0001F02DC01CB01F80180839183A283B383A0
:102C0000FE01EF55FF4F608171818281938120E049
:102C100030E040E85FE30E942504882344F4FE018D
:102C2000E156FF4F81E090E09183808364C0FE0114
:102C3000EF55FF4F608171818281938120E03FEFEA
:102C40004FE757E40E94C50318160CF043C0FE017D
:102C5000EB55FF4F608171818281938120E030E0EC
:102C600040E251E40E941F02DC01CB018E010156BB
:102C70001F4FBC01CD010E944900DC01CB01F801CE
:102C8000918380831FC0FE01E356FF4F88EC90E0E4
:102C900091838083FE01E356FF4F808191810197EC
:102CA000F1F7FE01E356FF4F91838083DE01A156C9
:102CB000BF4FFE01E156FF4F808191810197119630
:102CC0009C938E93FE01E156FF4F80819181009786
:102CD000D1F627C08E0101561F4FFE01EF55FF4F61
:102CE00060817181828193810E944900DC01CB0166
:102CF000F80191838083DE01A556BF4FFE01E156A6
:102D0000FF4F808191818D939C93FE01E556FF4F8B
:102D1000808191810197F1F7FE01E556FF4F918384
:102D2000808381E00E94730CFE01E956FF4F80E032
:102D300090E0ACEDB2E480839183A283B3838E01F3
:102D40000D561F4FFE01E956FF4F60817181828150
:102D5000938120E030E04AEF54E40E941F02DC013E
:102D6000CB01F80180839183A283B383FE01ED56EA
:102D7000FF4F608171818281938120E030E040E8E3
:102D80005FE30E942504882344F4FE01EF56FF4FC1
:102D900081E090E09183808364C0FE01ED56FF4F97
:102DA000608171818281938120E03FEF4FE757E49A
:102DB0000E94C50318160CF043C0FE01E956FF4FF0
:102DC000608171818281938120E030E040E251E4B2
:102DD0000E941F02DC01CB018E010F561F4FBC0168
:102DE000CD010E944900DC01CB01F8019183808371
:102DF0001FC0FE01E157FF4F88EC90E09183808374
:102E0000FE01E157FF4F808191810197F1F7FE01AB
:102E1000E157FF4F91838083DE01AF56BF4FFE0124
:102E2000EF56FF4F80819181019711969C938E936D
:102E3000FE01EF56FF4F808191810097D1F627C0A8
:102E40008E010F561F4FFE01ED56FF4F60817181BD
:102E5000828193810E944900DC01CB01F8019183BA
:102E60008083DE01A357BF4FFE01EF56FF4F8081E5
:102E700091818D939C93FE01E357FF4F8081918157
:102E80000197F1F7FE01E357FF4F9183808384E0C0
:102E90000E94730CFE01E757FF4F80E090E0A0EF27
:102EA000B2E480839183A283B3838E010B571F4FBB
:102EB000FE01E757FF4F608171818281938120E09D
:102EC00030E04AEF54E40E941F02DC01CB01F8011C
:102ED00080839183A283B383FE01EB57FF4F608110
:102EE00071818281938120E030E040E85FE30E94BD
:102EF0002504882344F4FE01ED57FF4F81E090E064
:102F00009183808364C0FE01EB57FF4F6081718124
:102F10008281938120E03FEF4FE757E40E94C50391
:102F200018160CF043C0FE01E757FF4F6081718116
:102F30008281938120E030E040E251E40E941F0250
:102F4000DC01CB018E010D571F4FBC01CD010E944A
:102F50004900DC01CB01F801918380831FC0FE0191
:102F6000EF57FF4F88EC90E091838083FE01EF578D
:102F7000FF4F808191810197F1F7FE01EF57FF4FDD
:102F800091838083DE01AD57BF4FFE01ED57FF4FA8
:102F900080819181019711969C938E93FE01ED574C
:102FA000FF4F808191810097D1F627C08E010D5788
:102FB0001F4FFE01EB57FF4F60817181828193812A
:102FC0000E944900DC01CB01F80191838083DE017E
:102FD000A158BF4FFE01ED57FF4F808191818D9326
:102FE0009C93FE01E158FF4F808191810197F1F799
:102FF000FE01E158FF4F9183808381E00E94730CB2
:10300000FE01E558FF4F80E090E0A8ECB2E4808339
:103010009183A283B3838E0109581F4FFE01E558A7
:10302000FF4F608171818281938120E030E04AEF1F
:1030300054E40E941F02DC01CB01F80180839183DC
:10304000A283B383FE01E958FF4F608171818281C1
:10305000938120E030E040E85FE30E94250488236C
:1030600044F4FE01EB58FF4F81E090E091838083B0
:1030700064C0FE01E958FF4F6081718182819381B4
:1030800020E03FEF4FE757E40E94C50318160CF00D
:1030900043C0FE01E558FF4F6081718182819381B9
:1030A00020E030E040E251E40E941F02DC01CB014D
:1030B0008E010B581F4FBC01CD010E944900DC015D
:1030C000CB01F801918380831FC0FE01ED58FF4FB3
:1030D00088EC90E091838083FE01ED58FF4F808162
:1030E00091810197F1F7FE01ED58FF4F91838083A5
:1030F000DE01AB58BF4FFE01EB58FF4F808191813D
:10310000019711969C938E93FE01EB58FF4F80819F
:1031100091810097D1F627C08E010B581F4FFE01F9
:10312000E958FF4F60817181828193810E9449003B
:10313000DC01CB01F80191838083DE01AF58BF4FE2
:10314000FE01EB58FF4F808191818D939C93FE018E
:10315000EF58FF4F808191810197F1F7FE01EF5801
:10316000FF4F918380830E94460D7CCB809182002B
:1031700090918300A0918400B091850089329105DF
:10318000A105B10508F46ECB81E062E00E94560C07
:1031900083E00E94730CFE01E359FF4F80E090E052
:1031A000ACEDB2E480839183A283B3838E0107598F
:1031B0001F4FFE01E359FF4F60817181828193812E
:1031C00020E030E04AEF54E40E941F02DC01CB0112
:1031D000F80180839183A283B383FE01E759FF4FF7
:1031E000608171818281938120E030E040E85FE37B
:1031F0000E942504882344F4FE01E959FF4F81E031
:1032000090E09183808364C0FE01E759FF4F6081A5
:1032100071818281938120E03FEF4FE757E40E9464
:10322000C50318160CF043C0FE01E359FF4F60813F
:1032300071818281938120E030E040E251E40E947C
:103240001F02DC01CB018E0109591F4FBC01CD01CA
:103250000E944900DC01CB01F801918380831FC0EB
:10326000FE01EB59FF4F88EC90E091838083FE01D3
:10327000EB59FF4F808191810197F1F7FE01EB59E6
:10328000FF4F91838083DE01A959BF4FFE01E959A9
:10329000FF4F80819181019711969C938E93FE013F
:1032A000E959FF4F808191810097D1F627C08E01A7
:1032B00009591F4FFE01E759FF4F608171818281DB
:1032C00093810E944900DC01CB01F8019183808346
:1032D000DE01AD59BF4FFE01E959FF4F8081918159
:1032E0008D939C93FE01ED59FF4F80819181019751
:1032F000F1F7FE01ED59FF4F9183808381E00E9439
:10330000730CFE01E15AFF4F80E090E0A8ECB2E4BC
:1033100080839183A283B3838E01055A1F4FFE01E0
:10332000E15AFF4F608171818281938120E030E01A
:103330004AEF54E40E941F02DC01CB01F8018083B4
:103340009183A283B383FE01E55AFF4F60817181AF
:103350008281938120E030E040E85FE30E94250411
:10336000882344F4FE01E75AFF4F81E090E0918307
:10337000808364C0FE01E55AFF4F608171818281C4
:10338000938120E03FEF4FE757E40E94C5031816F2
:103390000CF043C0FE01E15AFF4F608171818281D0
:1033A000938120E030E040E251E40E941F02DC0102
:1033B000CB018E01075A1F4FBC01CD010E9449006D
:1033C000DC01CB01F801918380831FC0FE01E95A23
:1033D000FF4F88EC90E091838083FE01E95AFF4F14
:1033E000808191810197F1F7FE01E95AFF4F9183A6
:1033F0008083DE01A75ABF4FFE01E75AFF4F80814D
:103400009181019711969C938E93FE01E75AFF4F8D
:10341000808191810097D1F627C08E01075A1F4FF6
:10342000FE01E55AFF4F60817181828193810E9484
:103430004900DC01CB01F80191838083DE01AB5AA6
:10344000BF4FFE01E75AFF4F808191818D939C937E
:10345000FE01EB5AFF4F808191810197F1F7FE0148
:10346000EB5AFF4F9183808384E00E94730CFE012E
:10347000EF5AFF4F80E090E0A0EFB2E480839183A9
:10348000A283B3838E01035B1F4FFE01EF5AFF4FF0
:10349000608171818281938120E030E04AEF54E4C1
:1034A0000E941F02DC01CB01F80180839183A2837B
:1034B000B383FE01E35BFF4F608171818281938161
:1034C00020E030E040E85FE30E942504882344F4D4
:1034D000FE01E55BFF4F81E090E09183808364C053
:1034E000FE01E35BFF4F608171818281938120E067
:1034F0003FEF4FE757E40E94C50318160CF043C096
:10350000FE01EF5AFF4F608171818281938120E03B
:1035100030E040E251E40E941F02DC01CB018E0149
:10352000055B1F4FBC01CD010E944900DC01CB01AE
:10353000F801918380831FC0FE01E75BFF4F88EC99
:1035400090E091838083FE01E75BFF4F8081918152
:103550000197F1F7FE01E75BFF4F91838083DE0166
:10356000A55BBF4FFE01E55BFF4F80819181019715
:1035700011969C938E93FE01E55BFF4F80819181B4
:103580000097D1F627C08E01055B1F4FFE01E35B5C
:10359000FF4F60817181828193810E944900DC012B
:1035A000CB01F80191838083DE01A95BBF4FFE014F
:1035B000E55BFF4F808191818D939C93FE01E95BD8
:1035C000FF4F808191810197F1F7FE01E95BFF4F89
:1035D0009183808381E00E94730CFE01ED5BFF4FBD
:1035E00080E090E0A6E1B3E480839183A283B3837B
:1035F0008E01015C1F4FFE01ED5BFF4F6081718109
:103600008281938120E030E04AEF54E40E941F025F
:10361000DC01CB01F80180839183A283B383FE0197
:10362000FF96608171818281938120E030E040E8E3
:103630005FE30E94250488232CF481E090E09EAF94
:103640008DAF46C0FE01FF966081718182819381BA
:1036500020E03FEF4FE757E40E94C503181664F5DA
:10366000FE01ED5BFF4F608171818281938120E0DB
:1036700030E040E251E40E941F02DC01CB01BC01BA
:10368000CD010E944900DC01CB019EAF8DAF0FC080
:1036900088EC90E09CAF8BAF8BAD9CAD0197F1F7C0
:1036A0009CAF8BAF8DAD9EAD01979EAF8DAF8DADB5
:1036B0009EAD009769F716C0FE01FF96608171818B
:1036C000828193810E944900DC01CB019EAF8DAFC6
:1036D0008DAD9EAD9AAF89AF89AD9AAD0197F1F7E7
:1036E0009AAF89AF83E00E94730C80E090E0ACED6C
:1036F000B2E48DAB9EABAFABB8AF6DA97EA98FA97D
:1037000098AD20E030E04AEF54E40E941F02DC0153
:10371000CB0189AB9AABABABBCAB69A97AA98BA93E
:103720009CA920E030E040E85FE30E942504882364
:103730002CF481E090E098AB8FA73FC069A97AA9EB
:103740008BA99CA920E03FEF4FE757E40E94C503F7
:1037500018164CF56DA97EA98FA998AD20E030E030
:1037600040E251E40E941F02DC01CB01BC01CD010B
:103770000E944900DC01CB0198AB8FA70FC088ECF9
:1037800090E09EA78DA78DA59EA50197F1F79EA716
:103790008DA78FA598A9019798AB8FA78FA598A9FA
:1037A000009769F714C069A97AA98BA99CA90E94FE
:1037B0004900DC01CB0198AB8FA78FA598A99CA7E6
:1037C0008BA78BA59CA50197F1F79CA78BA781E000
:1037D0000E94730C80E090E0A8ECB2E48FA398A75D
:1037E000A9A7BAA76FA178A589A59AA520E030E07E
:1037F0004AEF54E40E941F02DC01CB018BA39CA37F
:10380000ADA3BEA36BA17CA18DA19EA120E030E061
:1038100040E85FE30E94250488232CF481E090E0D7
:103820009AA389A33FC06BA17CA18DA19EA120E09A
:103830003FEF4FE757E40E94C50318164CF56FA100
:1038400078A589A59AA520E030E040E251E40E94E5
:103850001F02DC01CB01BC01CD010E944900DC014B
:10386000CB019AA389A30FC088EC90E098A38F8F17
:103870008F8D98A10197F1F798A38F8F89A19AA1B5
:1038800001979AA389A389A19AA1009769F714C007
:103890006BA17CA18DA19EA10E944900DC01CB01FE
:1038A0009AA389A389A19AA19E8F8D8F8D8D9E8DBC
:1038B0000197F1F79E8F8D8F84E00E94730C80E05A
:1038C00090E0A0EFB2E4898F9A8FAB8FBC8F698DA7
:1038D0007A8D8B8D9C8D20E030E04AEF54E40E947D
:1038E0001F02DC01CB018D8B9E8BAF8BB88F6D8956
:1038F0007E898F89988D20E030E040E85FE30E9468
:10390000250488232CF481E090E09C8B8B8B3FC0B6
:103910006D897E898F89988D20E03FEF4FE757E4CE
:103920000E94C50318164CF5698D7A8D8B8D9C8D80
:1039300020E030E040E251E40E941F02DC01CB01B4
:10394000BC01CD010E944900DC01CB019C8B8B8B1B
:103950000FC088EC90E09A8B898B89899A890197AE
:10396000F1F79A8B898B8B899C8901979C8B8B8B28
:103970008B899C89009769F714C06D897E898F892E
:10398000988D0E944900DC01CB019C8B8B8B8B892D
:103990009C89988B8F878F8598890197F1F7988BF1
:1039A0008F8781E00E94730C80E090E0A8ECB2E485
:1039B0008B879C87AD87BE876B857C858D859E8533
:1039C00020E030E04AEF54E40E941F02DC01CB010A
:1039D0008F839887A987BA876F81788589859A852B
:1039E00020E030E040E85FE30E94250488232CF4C7
:1039F00081E090E09E838D833FC06F8178858985CB
:103A00009A8520E03FEF4FE757E40E94C503181660
:103A10004CF56B857C858D859E8520E030E040E20D
:103A200051E40E941F02DC01CB01BC01CD010E94C8
:103A30004900DC01CB019E838D830FC088EC90E0B0
:103A40009C838B838B819C810197F1F79C838B8373
:103A50008D819E8101979E838D838D819E810097AC
:103A600069F714C06F81788589859A850E9449001D
:103A7000DC01CB019E838D838D819E819A83898316
:103A800089819A810197F1F79A8389830E94460D73
:103A90000C943214DF93CF93CDB7DEB783E064E0AC
:103AA00041E00E94720683E063E040E00E947206FB
:103AB00083E063E041E00E9489070E94641D0E9448
:103AC0001D10CF91DF910895DF93CF93CDB7DEB76F
:103AD00081E061E00E94190A81E00E94890ACF9189
:103AE000DF910895DF93CF93CDB7DEB768970FB618
:103AF000F894DEBF0FBECDBF80917C00882309F013
:103B0000CBC083E064E041E00E94890780E090E060
:103B1000A0E7B1E48D8B9E8BAF8BB88F6D897E89CA
:103B20008F89988D2BEA3AEA4AE250E40E941F02FC
:103B3000DC01CB01898B9A8BAB8BBC8B69897A8931
:103B40008B899C8920E030E040E85FE30E942504F7
:103B500088231CF481E0888B91C069897A898B89DC
:103B60009C8920E030E04FE753E40E94C50318161B
:103B70000CF07BC06D897E898F89988D20E030E0C4
:103B80004AE754E40E941903DC01CB018C879D872E
:103B9000AE87BF876C857D858E859F8520E030E070
:103BA0004AEF54E40E941F02DC01CB018887998709
:103BB000AA87BB87688579858A859B8520E030E068
:103BC00040E85FE30E94250488232CF481E090E024
:103BD0009F838E833FC0688579858A859B8520E099
:103BE0003FEF4FE757E40E94C50318164CF56C856C
:103BF0007D858E859F8520E030E040E251E40E9483
:103C00001F02DC01CB01BC01CD010E944900DC0197
:103C1000CB019F838E830FC088EC90E09D838C83C3
:103C20008C819D810197F1F79D838C838E819F818B
:103C300001979F838E838E819F81009769F724C0AF
:103C4000688579858A859B850E944900DC01CB01C6
:103C50009F838E838E819F819B838A838A819B81B0
:103C60000197F1F79B838A830FC069897A898B89D1
:103C70009C890E944900DC01CB01888B888989835B
:103C800089818A95F1F7898383E064E040E00E94AE
:103C9000890781E080937C0068960FB6F894DEBFB8
:103CA0000FBECDBFCF91DF910895DF93CF93CDB7F6
:103CB000DEB72E970FB6F894DEBF0FBECDBF809152
:103CC0007C00813009F0B8C080917D00882379F4B0
:103CD000E4E4F0E0108281E080937D0010927E00A9
:103CE00010927F001092800010928100A5C08091F8
:103CF0007E0090917F00A0918000B09181002227EA
:103D0000382F492F5A2FE4E4F0E08081882F90E08B
:103D1000A0E0B0E0820F931FA41FB51F22ED31E099
:103D200040E050E0BC01CD010E949F1FDA01C901B3
:103D30008093820090938300A0938400B0938500C9
:103D400080E090E0A0E2B2E48B879C87AD87BE87DD
:103D50006B857C858D859E8520E030E04AEF54E4BC
:103D60000E941F02DC01CB018F839887A987BA8745
:103D70006F81788589859A8520E030E040E85FE3AF
:103D80000E94250488232CF481E090E09E838D839B
:103D90003FC06F81788589859A8520E03FEF4FE7A6
:103DA00057E40E94C50318164CF56B857C858D85FC
:103DB0009E8520E030E040E251E40E941F02DC01D9
:103DC000CB01BC01CD010E944900DC01CB019E83E7
:103DD0008D830FC088EC90E09C838B838B819C81CA
:103DE0000197F1F79C838B838D819E8101979E8340
:103DF0008D838D819E81009769F714C06F817885CE
:103E000089859A850E944900DC01CB019E838D83C0
:103E10008D819E819A83898389819A810197F1F7A7
:103E20009A83898310927E0010927F001092800006
:103E30001092810010927D00809182009091830009
:103E4000A0918400B0918500BC01CD012E960FB6E3
:103E5000F894DEBF0FBECDBFCF91DF910895DF9301
:103E6000CF93CDB7DEB725E53EE181E0B9010E94F1
:103E70002E0BCF91DF910895DF93CF93CDB7DEB7AF
:103E800080917E0090917F00A0918000B091810090
:103E90000196A11DB11D80937E0090937F00A09399
:103EA0008000B093810080917E0090917F00A0916E
:103EB0008000B09181008B3D22E0920720E0A207B4
:103EC00020E0B20778F0E4E4F0E0108210927C0089
:103ED00010927D0010927E0010927F001092800060
:103EE00010928100CF91DF910895DF93CF93CDB7EA
:103EF000DEB78CE39FE10E943C10CF91DF910895E3
:103F0000629FD001739FF001829FE00DF11D649FBD
:103F1000E00DF11D929FF00D839FF00D749FF00D49
:103F2000659FF00D9927729FB00DE11DF91F639FEA
:103F3000B00DE11DF91FBD01CF0111240895A1E2CB
:103F40001A2EAA1BBB1BFD010DC0AA1FBB1FEE1F13
:103F5000FF1FA217B307E407F50720F0A21BB30B5E
:103F6000E40BF50B661F771F881F991F1A9469F7DA
:103F700060957095809590959B01AC01BD01CF0136
:103F800008952F923F924F925F926F927F928F92FD
:103F90009F92AF92BF92CF92DF92EF92FF920F93D8
:103FA0001F93CF93DF93CDB7DEB7CA1BDB0B0FB6E2
:103FB000F894DEBF0FBECDBF09942A88398848889F
:103FC0005F846E847D848C849B84AA84B984C88435
:103FD000DF80EE80FD800C811B81AA81B981CE0F2C
:103FE000D11D0FB6F894DEBF0FBECDBFED01089511
:043FF000F894FFCF73
:083FF4000000000000000000C5
:00000001FF
